{
  "_format": "hh-sol-artifact-1",
  "contractName": "EcoStaker",
  "sourceName": "contracts/EcoStaker.sol",
  "abi": [
    {
      "inputs": [
        {
          "internalType": "address",
          "name": "_ecoTokenAddress",
          "type": "address"
        }
      ],
      "stateMutability": "nonpayable",
      "type": "constructor"
    },
    {
      "anonymous": false,
      "inputs": [
        {
          "indexed": true,
          "internalType": "address",
          "name": "user",
          "type": "address"
        },
        {
          "indexed": false,
          "internalType": "uint256",
          "name": "amount",
          "type": "uint256"
        }
      ],
      "name": "Forfeited",
      "type": "event"
    },
    {
      "anonymous": false,
      "inputs": [
        {
          "indexed": true,
          "internalType": "address",
          "name": "user",
          "type": "address"
        },
        {
          "indexed": false,
          "internalType": "uint256",
          "name": "amount",
          "type": "uint256"
        }
      ],
      "name": "Staked",
      "type": "event"
    },
    {
      "anonymous": false,
      "inputs": [
        {
          "indexed": true,
          "internalType": "address",
          "name": "user",
          "type": "address"
        },
        {
          "indexed": false,
          "internalType": "uint256",
          "name": "amount",
          "type": "uint256"
        },
        {
          "indexed": false,
          "internalType": "uint256",
          "name": "reward",
          "type": "uint256"
        }
      ],
      "name": "Unstaked",
      "type": "event"
    },
    {
      "inputs": [],
      "name": "REWARD_PERCENT",
      "outputs": [
        {
          "internalType": "uint256",
          "name": "",
          "type": "uint256"
        }
      ],
      "stateMutability": "view",
      "type": "function"
    },
    {
      "inputs": [],
      "name": "STAKE_DURATION",
      "outputs": [
        {
          "internalType": "uint256",
          "name": "",
          "type": "uint256"
        }
      ],
      "stateMutability": "view",
      "type": "function"
    },
    {
      "inputs": [],
      "name": "ecoToken",
      "outputs": [
        {
          "internalType": "contract IERC20",
          "name": "",
          "type": "address"
        }
      ],
      "stateMutability": "view",
      "type": "function"
    },
    {
      "inputs": [
        {
          "internalType": "address",
          "name": "_user",
          "type": "address"
        }
      ],
      "name": "getStakeInfo",
      "outputs": [
        {
          "internalType": "uint256",
          "name": "amount",
          "type": "uint256"
        },
        {
          "internalType": "uint256",
          "name": "unlockTime",
          "type": "uint256"
        },
        {
          "internalType": "bool",
          "name": "eligibleForReward",
          "type": "bool"
        }
      ],
      "stateMutability": "view",
      "type": "function"
    },
    {
      "inputs": [
        {
          "internalType": "uint256",
          "name": "_amount",
          "type": "uint256"
        }
      ],
      "name": "stake",
      "outputs": [],
      "stateMutability": "nonpayable",
      "type": "function"
    },
    {
      "inputs": [
        {
          "internalType": "address",
          "name": "",
          "type": "address"
        }
      ],
      "name": "stakes",
      "outputs": [
        {
          "internalType": "uint256",
          "name": "amount",
          "type": "uint256"
        },
        {
          "internalType": "uint256",
          "name": "startTime",
          "type": "uint256"
        },
        {
          "internalType": "bool",
          "name": "claimedReward",
          "type": "bool"
        }
      ],
      "stateMutability": "view",
      "type": "function"
    },
    {
      "inputs": [],
      "name": "unstake",
      "outputs": [],
      "stateMutability": "nonpayable",
      "type": "function"
    }
  ],
  "bytecode": "0x608060405234801561001057600080fd5b50604051610ecc380380610ecc833981810160405281019061003291906100db565b806000806101000a81548173ffffffffffffffffffffffffffffffffffffffff021916908373ffffffffffffffffffffffffffffffffffffffff16021790555050610108565b600080fd5b600073ffffffffffffffffffffffffffffffffffffffff82169050919050565b60006100a88261007d565b9050919050565b6100b88161009d565b81146100c357600080fd5b50565b6000815190506100d5816100af565b92915050565b6000602082840312156100f1576100f0610078565b5b60006100ff848285016100c6565b91505092915050565b610db5806101176000396000f3fe608060405234801561001057600080fd5b506004361061007d5760003560e01c80636afb630a1161005b5780636afb630a146100dc578063705d5304146100fa578063a694fc3a14610118578063c3453153146101345761007d565b806306fbedbe1461008257806316934fc4146100a05780632def6620146100d2575b600080fd5b61008a610166565b60405161009791906107f8565b60405180910390f35b6100ba60048036038101906100b59190610876565b61016b565b6040516100c9939291906108be565b60405180910390f35b6100da6101a2565b005b6100e4610468565b6040516100f191906107f8565b60405180910390f35b61010261046f565b60405161010f9190610954565b60405180910390f35b610132600480360381019061012d919061099b565b610493565b005b61014e60048036038101906101499190610876565b610726565b60405161015d939291906108be565b60405180910390f35b600781565b60016020528060005260406000206000915090508060000154908060010154908060020160009054906101000a900460ff16905083565b6000600160003373ffffffffffffffffffffffffffffffffffffffff1673ffffffffffffffffffffffffffffffffffffffff1681526020019081526020016000209050600081600001541161022c576040517f08c379a000000000000000000000000000000000000000000000000000000000815260040161022390610a25565b60405180910390fd5b60008160000154905060006213c680836001015461024a9190610a74565b421015801561026857508260020160009054906101000a900460ff16155b156102a657606460078361027c9190610aa8565b6102869190610b19565b905060018360020160006101000a81548160ff0219169083151502179055505b600160003373ffffffffffffffffffffffffffffffffffffffff1673ffffffffffffffffffffffffffffffffffffffff16815260200190815260200160002060008082016000905560018201600090556002820160006101000a81549060ff0219169055505060008054906101000a900473ffffffffffffffffffffffffffffffffffffffff1673ffffffffffffffffffffffffffffffffffffffff1663a9059cbb3383856103559190610a74565b6040518363ffffffff1660e01b8152600401610372929190610b59565b6020604051808303816000875af1158015610391573d6000803e3d6000fd5b505050506040513d601f19601f820116820180604052508101906103b59190610bae565b506000811115610414573373ffffffffffffffffffffffffffffffffffffffff167f7fc4727e062e336010f2c282598ef5f14facb3de68cf8195c2f23e1454b2b74e8383604051610407929190610bdb565b60405180910390a2610463565b3373ffffffffffffffffffffffffffffffffffffffff167f5b1c616c572bf4d007644e7a85cb76c1ad8ad649c2587712bc80495fe76343a68360405161045a91906107f8565b60405180910390a25b505050565b6213c68081565b60008054906101000a900473ffffffffffffffffffffffffffffffffffffffff1681565b600081116104d6576040517f08c379a00000000000000000000000000000000000000000000000000000000081526004016104cd90610c50565b60405180910390fd5b6000600160003373ffffffffffffffffffffffffffffffffffffffff1673ffffffffffffffffffffffffffffffffffffffff168152602001908152602001600020600001541461055b576040517f08c379a000000000000000000000000000000000000000000000000000000000815260040161055290610cbc565b60405180910390fd5b60008060009054906101000a900473ffffffffffffffffffffffffffffffffffffffff1673ffffffffffffffffffffffffffffffffffffffff166323b872dd3330856040518463ffffffff1660e01b81526004016105bb93929190610cdc565b6020604051808303816000875af11580156105da573d6000803e3d6000fd5b505050506040513d601f19601f820116820180604052508101906105fe9190610bae565b905080610640576040517f08c379a000000000000000000000000000000000000000000000000000000000815260040161063790610d5f565b60405180910390fd5b604051806060016040528083815260200142815260200160001515815250600160003373ffffffffffffffffffffffffffffffffffffffff1673ffffffffffffffffffffffffffffffffffffffff168152602001908152602001600020600082015181600001556020820151816001015560408201518160020160006101000a81548160ff0219169083151502179055509050503373ffffffffffffffffffffffffffffffffffffffff167f9e71bc8eea02a63969f509818f2dafb9254532904319f9dbda79b67bd34a5f3d8360405161071a91906107f8565b60405180910390a25050565b600080600080600160008673ffffffffffffffffffffffffffffffffffffffff1673ffffffffffffffffffffffffffffffffffffffff16815260200190815260200160002060405180606001604052908160008201548152602001600182015481526020016002820160009054906101000a900460ff1615151515815250509050806000015193506213c68081602001516107c19190610a74565b92508242101580156107d557508060400151155b9150509193909250565b6000819050919050565b6107f2816107df565b82525050565b600060208201905061080d60008301846107e9565b92915050565b600080fd5b600073ffffffffffffffffffffffffffffffffffffffff82169050919050565b600061084382610818565b9050919050565b61085381610838565b811461085e57600080fd5b50565b6000813590506108708161084a565b92915050565b60006020828403121561088c5761088b610813565b5b600061089a84828501610861565b91505092915050565b60008115159050919050565b6108b8816108a3565b82525050565b60006060820190506108d360008301866107e9565b6108e060208301856107e9565b6108ed60408301846108af565b949350505050565b6000819050919050565b600061091a61091561091084610818565b6108f5565b610818565b9050919050565b600061092c826108ff565b9050919050565b600061093e82610921565b9050919050565b61094e81610933565b82525050565b60006020820190506109696000830184610945565b92915050565b610978816107df565b811461098357600080fd5b50565b6000813590506109958161096f565b92915050565b6000602082840312156109b1576109b0610813565b5b60006109bf84828501610986565b91505092915050565b600082825260208201905092915050565b7f4e6f20616374697665207374616b650000000000000000000000000000000000600082015250565b6000610a0f600f836109c8565b9150610a1a826109d9565b602082019050919050565b60006020820190508181036000830152610a3e81610a02565b9050919050565b7f4e487b7100000000000000000000000000000000000000000000000000000000600052601160045260246000fd5b6000610a7f826107df565b9150610a8a836107df565b9250828201905080821115610aa257610aa1610a45565b5b92915050565b6000610ab3826107df565b9150610abe836107df565b9250828202610acc816107df565b91508282048414831517610ae357610ae2610a45565b5b5092915050565b7f4e487b7100000000000000000000000000000000000000000000000000000000600052601260045260246000fd5b6000610b24826107df565b9150610b2f836107df565b925082610b3f57610b3e610aea565b5b828204905092915050565b610b5381610838565b82525050565b6000604082019050610b6e6000830185610b4a565b610b7b60208301846107e9565b9392505050565b610b8b816108a3565b8114610b9657600080fd5b50565b600081519050610ba881610b82565b92915050565b600060208284031215610bc457610bc3610813565b5b6000610bd284828501610b99565b91505092915050565b6000604082019050610bf060008301856107e9565b610bfd60208301846107e9565b9392505050565b7f416d6f756e74206d7573742062652067726561746572207468616e207a65726f600082015250565b6000610c3a6020836109c8565b9150610c4582610c04565b602082019050919050565b60006020820190508181036000830152610c6981610c2d565b9050919050565b7f416c7265616479207374616b696e670000000000000000000000000000000000600082015250565b6000610ca6600f836109c8565b9150610cb182610c70565b602082019050919050565b60006020820190508181036000830152610cd581610c99565b9050919050565b6000606082019050610cf16000830186610b4a565b610cfe6020830185610b4a565b610d0b60408301846107e9565b949350505050565b7f5472616e73666572206661696c65640000000000000000000000000000000000600082015250565b6000610d49600f836109c8565b9150610d5482610d13565b602082019050919050565b60006020820190508181036000830152610d7881610d3c565b905091905056fea26469706673582212202cbfed56717654e2780e0671efb0b676c0b068fdbc9d667fd1311c869e75759d64736f6c63430008140033",
  "linkReferences": {},
  "deployedLinkReferences": {}
}