{
  "_format": "hh-sol-artifact-1",
  "contractName": "EcoCoin",
  "sourceName": "contracts/EcoCoin.sol",
  "abi": [
    {
      "inputs": [],
      "stateMutability": "nonpayable",
      "type": "constructor"
    },
    {
      "anonymous": false,
      "inputs": [
        {
          "indexed": true,
          "internalType": "address",
          "name": "owner",
          "type": "address"
        },
        {
          "indexed": true,
          "internalType": "address",
          "name": "spender",
          "type": "address"
        },
        {
          "indexed": false,
          "internalType": "uint256",
          "name": "value",
          "type": "uint256"
        }
      ],
      "name": "Approval",
      "type": "event"
    },
    {
      "anonymous": false,
      "inputs": [
        {
          "indexed": true,
          "internalType": "address",
          "name": "from",
          "type": "address"
        },
        {
          "indexed": false,
          "internalType": "uint256",
          "name": "amount",
          "type": "uint256"
        }
      ],
      "name": "Burned",
      "type": "event"
    },
    {
      "anonymous": false,
      "inputs": [
        {
          "indexed": true,
          "internalType": "address",
          "name": "user",
          "type": "address"
        },
        {
          "indexed": false,
          "internalType": "uint256",
          "name": "amount",
          "type": "uint256"
        }
      ],
      "name": "CarbonCreditAdded",
      "type": "event"
    },
    {
      "anonymous": false,
      "inputs": [
        {
          "indexed": true,
          "internalType": "address",
          "name": "to",
          "type": "address"
        },
        {
          "indexed": false,
          "internalType": "uint256",
          "name": "amount",
          "type": "uint256"
        }
      ],
      "name": "Minted",
      "type": "event"
    },
    {
      "anonymous": false,
      "inputs": [
        {
          "indexed": true,
          "internalType": "address",
          "name": "previousOwner",
          "type": "address"
        },
        {
          "indexed": true,
          "internalType": "address",
          "name": "newOwner",
          "type": "address"
        }
      ],
      "name": "OwnershipTransferred",
      "type": "event"
    },
    {
      "anonymous": false,
      "inputs": [
        {
          "indexed": false,
          "internalType": "address",
          "name": "account",
          "type": "address"
        }
      ],
      "name": "Paused",
      "type": "event"
    },
    {
      "anonymous": false,
      "inputs": [
        {
          "indexed": true,
          "internalType": "address",
          "name": "user",
          "type": "address"
        },
        {
          "indexed": false,
          "internalType": "uint256",
          "name": "amount",
          "type": "uint256"
        }
      ],
      "name": "Staked",
      "type": "event"
    },
    {
      "anonymous": false,
      "inputs": [
        {
          "indexed": true,
          "internalType": "address",
          "name": "from",
          "type": "address"
        },
        {
          "indexed": true,
          "internalType": "address",
          "name": "to",
          "type": "address"
        },
        {
          "indexed": false,
          "internalType": "uint256",
          "name": "value",
          "type": "uint256"
        }
      ],
      "name": "Transfer",
      "type": "event"
    },
    {
      "anonymous": false,
      "inputs": [
        {
          "indexed": false,
          "internalType": "address",
          "name": "account",
          "type": "address"
        }
      ],
      "name": "Unpaused",
      "type": "event"
    },
    {
      "anonymous": false,
      "inputs": [
        {
          "indexed": true,
          "internalType": "address",
          "name": "user",
          "type": "address"
        },
        {
          "indexed": false,
          "internalType": "uint256",
          "name": "amount",
          "type": "uint256"
        },
        {
          "indexed": false,
          "internalType": "uint256",
          "name": "reward",
          "type": "uint256"
        }
      ],
      "name": "Unstaked",
      "type": "event"
    },
    {
      "inputs": [],
      "name": "CO2_PER_ECO",
      "outputs": [
        {
          "internalType": "uint256",
          "name": "",
          "type": "uint256"
        }
      ],
      "stateMutability": "view",
      "type": "function"
    },
    {
      "inputs": [],
      "name": "CO2_PER_TREE",
      "outputs": [
        {
          "internalType": "uint256",
          "name": "",
          "type": "uint256"
        }
      ],
      "stateMutability": "view",
      "type": "function"
    },
    {
      "inputs": [],
      "name": "MAX_SUPPLY",
      "outputs": [
        {
          "internalType": "uint256",
          "name": "",
          "type": "uint256"
        }
      ],
      "stateMutability": "view",
      "type": "function"
    },
    {
      "inputs": [],
      "name": "TOTAL_TREES",
      "outputs": [
        {
          "internalType": "uint256",
          "name": "",
          "type": "uint256"
        }
      ],
      "stateMutability": "view",
      "type": "function"
    },
    {
      "inputs": [],
      "name": "TREES_PER_ECO",
      "outputs": [
        {
          "internalType": "uint256",
          "name": "",
          "type": "uint256"
        }
      ],
      "stateMutability": "view",
      "type": "function"
    },
    {
      "inputs": [
        {
          "internalType": "address",
          "name": "to",
          "type": "address"
        },
        {
          "internalType": "uint256",
          "name": "amount",
          "type": "uint256"
        }
      ],
      "name": "addCarbonCredits",
      "outputs": [],
      "stateMutability": "nonpayable",
      "type": "function"
    },
    {
      "inputs": [
        {
          "internalType": "address",
          "name": "owner",
          "type": "address"
        },
        {
          "internalType": "address",
          "name": "spender",
          "type": "address"
        }
      ],
      "name": "allowance",
      "outputs": [
        {
          "internalType": "uint256",
          "name": "",
          "type": "uint256"
        }
      ],
      "stateMutability": "view",
      "type": "function"
    },
    {
      "inputs": [
        {
          "internalType": "address",
          "name": "spender",
          "type": "address"
        },
        {
          "internalType": "uint256",
          "name": "amount",
          "type": "uint256"
        }
      ],
      "name": "approve",
      "outputs": [
        {
          "internalType": "bool",
          "name": "",
          "type": "bool"
        }
      ],
      "stateMutability": "nonpayable",
      "type": "function"
    },
    {
      "inputs": [
        {
          "internalType": "address",
          "name": "account",
          "type": "address"
        }
      ],
      "name": "balanceOf",
      "outputs": [
        {
          "internalType": "uint256",
          "name": "",
          "type": "uint256"
        }
      ],
      "stateMutability": "view",
      "type": "function"
    },
    {
      "inputs": [
        {
          "internalType": "uint256",
          "name": "amount",
          "type": "uint256"
        }
      ],
      "name": "burn",
      "outputs": [],
      "stateMutability": "nonpayable",
      "type": "function"
    },
    {
      "inputs": [
        {
          "internalType": "address",
          "name": "",
          "type": "address"
        }
      ],
      "name": "carbonCredits",
      "outputs": [
        {
          "internalType": "uint256",
          "name": "",
          "type": "uint256"
        }
      ],
      "stateMutability": "view",
      "type": "function"
    },
    {
      "inputs": [],
      "name": "co2PerEco",
      "outputs": [
        {
          "internalType": "uint256",
          "name": "",
          "type": "uint256"
        }
      ],
      "stateMutability": "pure",
      "type": "function"
    },
    {
      "inputs": [],
      "name": "decimals",
      "outputs": [
        {
          "internalType": "uint8",
          "name": "",
          "type": "uint8"
        }
      ],
      "stateMutability": "view",
      "type": "function"
    },
    {
      "inputs": [
        {
          "internalType": "address",
          "name": "spender",
          "type": "address"
        },
        {
          "internalType": "uint256",
          "name": "subtractedValue",
          "type": "uint256"
        }
      ],
      "name": "decreaseAllowance",
      "outputs": [
        {
          "internalType": "bool",
          "name": "",
          "type": "bool"
        }
      ],
      "stateMutability": "nonpayable",
      "type": "function"
    },
    {
      "inputs": [],
      "name": "ecoImpact",
      "outputs": [
        {
          "internalType": "string",
          "name": "",
          "type": "string"
        }
      ],
      "stateMutability": "pure",
      "type": "function"
    },
    {
      "inputs": [
        {
          "internalType": "address",
          "name": "spender",
          "type": "address"
        },
        {
          "internalType": "uint256",
          "name": "addedValue",
          "type": "uint256"
        }
      ],
      "name": "increaseAllowance",
      "outputs": [
        {
          "internalType": "bool",
          "name": "",
          "type": "bool"
        }
      ],
      "stateMutability": "nonpayable",
      "type": "function"
    },
    {
      "inputs": [
        {
          "internalType": "address",
          "name": "to",
          "type": "address"
        },
        {
          "internalType": "uint256",
          "name": "amount",
          "type": "uint256"
        }
      ],
      "name": "mint",
      "outputs": [],
      "stateMutability": "nonpayable",
      "type": "function"
    },
    {
      "inputs": [
        {
          "internalType": "address",
          "name": "to",
          "type": "address"
        },
        {
          "internalType": "uint256",
          "name": "amount",
          "type": "uint256"
        },
        {
          "internalType": "uint256",
          "name": "carbonCreditAmount",
          "type": "uint256"
        }
      ],
      "name": "mintWithCarbonCredit",
      "outputs": [],
      "stateMutability": "nonpayable",
      "type": "function"
    },
    {
      "inputs": [],
      "name": "name",
      "outputs": [
        {
          "internalType": "string",
          "name": "",
          "type": "string"
        }
      ],
      "stateMutability": "view",
      "type": "function"
    },
    {
      "inputs": [],
      "name": "owner",
      "outputs": [
        {
          "internalType": "address",
          "name": "",
          "type": "address"
        }
      ],
      "stateMutability": "view",
      "type": "function"
    },
    {
      "inputs": [],
      "name": "pause",
      "outputs": [],
      "stateMutability": "nonpayable",
      "type": "function"
    },
    {
      "inputs": [],
      "name": "paused",
      "outputs": [
        {
          "internalType": "bool",
          "name": "",
          "type": "bool"
        }
      ],
      "stateMutability": "view",
      "type": "function"
    },
    {
      "inputs": [],
      "name": "renounceOwnership",
      "outputs": [],
      "stateMutability": "nonpayable",
      "type": "function"
    },
    {
      "inputs": [
        {
          "internalType": "uint256",
          "name": "amount",
          "type": "uint256"
        }
      ],
      "name": "stake",
      "outputs": [],
      "stateMutability": "nonpayable",
      "type": "function"
    },
    {
      "inputs": [
        {
          "internalType": "address",
          "name": "",
          "type": "address"
        }
      ],
      "name": "stakedBalance",
      "outputs": [
        {
          "internalType": "uint256",
          "name": "amount",
          "type": "uint256"
        },
        {
          "internalType": "uint256",
          "name": "stakingTime",
          "type": "uint256"
        }
      ],
      "stateMutability": "view",
      "type": "function"
    },
    {
      "inputs": [],
      "name": "stakingRewardRate",
      "outputs": [
        {
          "internalType": "uint256",
          "name": "",
          "type": "uint256"
        }
      ],
      "stateMutability": "view",
      "type": "function"
    },
    {
      "inputs": [],
      "name": "symbol",
      "outputs": [
        {
          "internalType": "string",
          "name": "",
          "type": "string"
        }
      ],
      "stateMutability": "view",
      "type": "function"
    },
    {
      "inputs": [],
      "name": "totalStaked",
      "outputs": [
        {
          "internalType": "uint256",
          "name": "",
          "type": "uint256"
        }
      ],
      "stateMutability": "view",
      "type": "function"
    },
    {
      "inputs": [],
      "name": "totalSupply",
      "outputs": [
        {
          "internalType": "uint256",
          "name": "",
          "type": "uint256"
        }
      ],
      "stateMutability": "view",
      "type": "function"
    },
    {
      "inputs": [
        {
          "internalType": "address",
          "name": "recipient",
          "type": "address"
        },
        {
          "internalType": "uint256",
          "name": "amount",
          "type": "uint256"
        }
      ],
      "name": "transfer",
      "outputs": [
        {
          "internalType": "bool",
          "name": "",
          "type": "bool"
        }
      ],
      "stateMutability": "nonpayable",
      "type": "function"
    },
    {
      "inputs": [
        {
          "internalType": "address",
          "name": "from",
          "type": "address"
        },
        {
          "internalType": "address",
          "name": "to",
          "type": "address"
        },
        {
          "internalType": "uint256",
          "name": "amount",
          "type": "uint256"
        }
      ],
      "name": "transferFrom",
      "outputs": [
        {
          "internalType": "bool",
          "name": "",
          "type": "bool"
        }
      ],
      "stateMutability": "nonpayable",
      "type": "function"
    },
    {
      "inputs": [
        {
          "internalType": "address",
          "name": "newOwner",
          "type": "address"
        }
      ],
      "name": "transferOwnership",
      "outputs": [],
      "stateMutability": "nonpayable",
      "type": "function"
    },
    {
      "inputs": [],
      "name": "treesPerEco",
      "outputs": [
        {
          "internalType": "uint256",
          "name": "",
          "type": "uint256"
        }
      ],
      "stateMutability": "pure",
      "type": "function"
    },
    {
      "inputs": [],
      "name": "unpause",
      "outputs": [],
      "stateMutability": "nonpayable",
      "type": "function"
    },
    {
      "inputs": [
        {
          "internalType": "uint256",
          "name": "amount",
          "type": "uint256"
        }
      ],
      "name": "unstake",
      "outputs": [],
      "stateMutability": "nonpayable",
      "type": "function"
    }
  ],
  "bytecode": "0x6080604052600a6006553480156200001657600080fd5b506040518060400160405280600781526020017f45636f436f696e000000000000000000000000000000000000000000000000008152506040518060400160405280600381526020017f45434f0000000000000000000000000000000000000000000000000000000000815250816003908162000094919062000432565b508060049081620000a6919062000432565b505050620000c9620000bd620000ea60201b60201c565b620000f260201b60201c565b6000600560146101000a81548160ff02191690831515021790555062000519565b600033905090565b6000600560009054906101000a900473ffffffffffffffffffffffffffffffffffffffff16905081600560006101000a81548173ffffffffffffffffffffffffffffffffffffffff021916908373ffffffffffffffffffffffffffffffffffffffff1602179055508173ffffffffffffffffffffffffffffffffffffffff168173ffffffffffffffffffffffffffffffffffffffff167f8be0079c531659141344cd1fd0a4f28419497f9722a3daafe3b4186f6b6457e060405160405180910390a35050565b600081519050919050565b7f4e487b7100000000000000000000000000000000000000000000000000000000600052604160045260246000fd5b7f4e487b7100000000000000000000000000000000000000000000000000000000600052602260045260246000fd5b600060028204905060018216806200023a57607f821691505b60208210810362000250576200024f620001f2565b5b50919050565b60008190508160005260206000209050919050565b60006020601f8301049050919050565b600082821b905092915050565b600060088302620002ba7fffffffffffffffffffffffffffffffffffffffffffffffffffffffffffffffff826200027b565b620002c686836200027b565b95508019841693508086168417925050509392505050565b6000819050919050565b6000819050919050565b6000620003136200030d6200030784620002de565b620002e8565b620002de565b9050919050565b6000819050919050565b6200032f83620002f2565b620003476200033e826200031a565b84845462000288565b825550505050565b600090565b6200035e6200034f565b6200036b81848462000324565b505050565b5b8181101562000393576200038760008262000354565b60018101905062000371565b5050565b601f821115620003e257620003ac8162000256565b620003b7846200026b565b81016020851015620003c7578190505b620003df620003d6856200026b565b83018262000370565b50505b505050565b600082821c905092915050565b60006200040760001984600802620003e7565b1980831691505092915050565b6000620004228383620003f4565b9150826002028217905092915050565b6200043d82620001b8565b67ffffffffffffffff811115620004595762000458620001c3565b5b62000465825462000221565b6200047282828562000397565b600060209050601f831160018114620004aa576000841562000495578287015190505b620004a1858262000414565b86555062000511565b601f198416620004ba8662000256565b60005b82811015620004e457848901518255600182019150602085019450602081019050620004bd565b8683101562000504578489015162000500601f891682620003f4565b8355505b6001600288020188555050505b505050505050565b612d6780620005296000396000f3fe608060405234801561001057600080fd5b50600436106102115760003560e01c8063817b1cd211610125578063a9059cbb116100ad578063dd62ed3e1161007c578063dd62ed3e146105e5578063ebf8aad414610615578063ed6ae84114610633578063efae586614610651578063f2fde38b1461066d57610211565b8063a9059cbb1461055b578063bad5dfaa1461058b578063c6793986146105a9578063d77ffb9c146105c757610211565b80638da5cb5b116100f45780638da5cb5b146104b557806395d89b41146104d3578063a3690bc7146104f1578063a457c2d71461050f578063a694fc3a1461053f57610211565b8063817b1cd2146104535780638456cb591461047157806385e85faa1461047b5780638bed051c1461049957610211565b80633f4ba83a116101a85780635c975abb116101775780635c975abb1461039a57806360217267146103b857806370a08231146103e9578063715018a6146104195780637aa2bdd41461042357610211565b80633f4ba83a1461033a57806340c10f191461034457806342966c68146103605780634f3fc2df1461037c57610211565b80632e17de78116101e45780632e17de78146102b2578063313ce567146102ce57806332cb6b0c146102ec578063395093511461030a57610211565b806306fdde0314610216578063095ea7b31461023457806318160ddd1461026457806323b872dd14610282575b600080fd5b61021e610689565b60405161022b9190611e59565b60405180910390f35b61024e60048036038101906102499190611f14565b61071b565b60405161025b9190611f6f565b60405180910390f35b61026c61073e565b6040516102799190611f99565b60405180910390f35b61029c60048036038101906102979190611fb4565b610748565b6040516102a99190611f6f565b60405180910390f35b6102cc60048036038101906102c79190612007565b610777565b005b6102d661095e565b6040516102e39190612050565b60405180910390f35b6102f4610967565b6040516103019190611f99565b60405180910390f35b610324600480360381019061031f9190611f14565b61098e565b6040516103319190611f6f565b60405180910390f35b6103426109c5565b005b61035e60048036038101906103599190611f14565b6109d7565b005b61037a60048036038101906103759190612007565b610ab3565b005b610384610b0e565b6040516103919190611f99565b60405180910390f35b6103a2610b14565b6040516103af9190611f6f565b60405180910390f35b6103d260048036038101906103cd919061206b565b610b2b565b6040516103e0929190612098565b60405180910390f35b61040360048036038101906103fe919061206b565b610b4f565b6040516104109190611f99565b60405180910390f35b610421610b97565b005b61043d6004803603810190610438919061206b565b610bab565b60405161044a9190611f99565b60405180910390f35b61045b610bc3565b6040516104689190611f99565b60405180910390f35b610479610bc9565b005b610483610bdb565b6040516104909190611f99565b60405180910390f35b6104b360048036038101906104ae91906120c1565b610bf2565b005b6104bd610db6565b6040516104ca9190612123565b60405180910390f35b6104db610de0565b6040516104e89190611e59565b60405180910390f35b6104f9610e72565b6040516105069190611f99565b60405180910390f35b61052960048036038101906105249190611f14565b610e7b565b6040516105369190611f6f565b60405180910390f35b61055960048036038101906105549190612007565b610ef2565b005b61057560048036038101906105709190611f14565b61109d565b6040516105829190611f6f565b60405180910390f35b6105936110fc565b6040516105a09190611f99565b60405180910390f35b6105b1611107565b6040516105be9190611f99565b60405180910390f35b6105cf61110f565b6040516105dc9190611e59565b60405180910390f35b6105ff60048036038101906105fa919061213e565b61112f565b60405161060c9190611f99565b60405180910390f35b61061d6111b6565b60405161062a9190611f99565b60405180910390f35b61063b6111bb565b6040516106489190611f99565b60405180910390f35b61066b60048036038101906106669190611f14565b6111d6565b005b6106876004803603810190610682919061206b565b611286565b005b606060038054610698906121ad565b80601f01602080910402602001604051908101604052809291908181526020018280546106c4906121ad565b80156107115780601f106106e657610100808354040283529160200191610711565b820191906000526020600020905b8154815290600101906020018083116106f457829003601f168201915b5050505050905090565b600080610726611309565b9050610733818585611311565b600191505092915050565b6000600254905090565b600080610753611309565b90506107608582856114da565b61076b858585611566565b60019150509392505050565b61077f6117dc565b80600860003373ffffffffffffffffffffffffffffffffffffffff1673ffffffffffffffffffffffffffffffffffffffff168152602001908152602001600020600001541015610804576040517f08c379a00000000000000000000000000000000000000000000000000000000081526004016107fb9061222a565b60405180910390fd5b6000600860003373ffffffffffffffffffffffffffffffffffffffff1673ffffffffffffffffffffffffffffffffffffffff16815260200190815260200160002060010154426108549190612279565b9050600063bbf81e00826006548561086c91906122ad565b61087691906122ad565b610880919061231e565b905061088c3382611826565b610897303385611566565b82600860003373ffffffffffffffffffffffffffffffffffffffff1673ffffffffffffffffffffffffffffffffffffffff16815260200190815260200160002060000160008282546108e99190612279565b9250508190555082600760008282546109029190612279565b925050819055503373ffffffffffffffffffffffffffffffffffffffff167f7fc4727e062e336010f2c282598ef5f14facb3de68cf8195c2f23e1454b2b74e8483604051610951929190612098565b60405180910390a2505050565b60006012905090565b670de0b6b3a7640000600a6317d78400610981919061231e565b61098b91906122ad565b81565b600080610999611309565b90506109ba8185856109ab858961112f565b6109b5919061234f565b611311565b600191505092915050565b6109cd61197c565b6109d56119fa565b565b6109df61197c565b670de0b6b3a7640000600a6317d784006109f9919061231e565b610a0391906122ad565b81610a0c61073e565b610a16919061234f565b1115610a57576040517f08c379a0000000000000000000000000000000000000000000000000000000008152600401610a4e906123f5565b60405180910390fd5b610a618282611826565b8173ffffffffffffffffffffffffffffffffffffffff167f30385c845b448a36257a6a1716e6ad2e1bc2cbe333cde1e69fe849ad6511adfe82604051610aa79190611f99565b60405180910390a25050565b610abd3382611a5d565b3373ffffffffffffffffffffffffffffffffffffffff167f696de425f79f4a40bc6d2122ca50507f0efbeabbff86a84871b7196ab8ea8df782604051610b039190611f99565b60405180910390a250565b60065481565b6000600560149054906101000a900460ff16905090565b60086020528060005260406000206000915090508060000154908060010154905082565b60008060008373ffffffffffffffffffffffffffffffffffffffff1673ffffffffffffffffffffffffffffffffffffffff168152602001908152602001600020549050919050565b610b9f61197c565b610ba96000611c2a565b565b60096020528060005260406000206000915090505481565b60075481565b610bd161197c565b610bd9611cf0565b565b6658d15e17628000600a610bef91906122ad565b81565b610bfa61197c565b81811015610c3d576040517f08c379a0000000000000000000000000000000000000000000000000000000008152600401610c3490612461565b60405180910390fd5b670de0b6b3a7640000600a6317d78400610c57919061231e565b610c6191906122ad565b82610c6a61073e565b610c74919061234f565b1115610cb5576040517f08c379a0000000000000000000000000000000000000000000000000000000008152600401610cac906124cd565b60405180910390fd5b610cbf8383611826565b80600960008573ffffffffffffffffffffffffffffffffffffffff1673ffffffffffffffffffffffffffffffffffffffff1681526020019081526020016000206000828254610d0e919061234f565b925050819055508273ffffffffffffffffffffffffffffffffffffffff167f30385c845b448a36257a6a1716e6ad2e1bc2cbe333cde1e69fe849ad6511adfe83604051610d5b9190611f99565b60405180910390a28273ffffffffffffffffffffffffffffffffffffffff167f565e9e1c2cc4db7898f06a74a597dc53034410231ec1f984358c9c442c3af30082604051610da99190611f99565b60405180910390a2505050565b6000600560009054906101000a900473ffffffffffffffffffffffffffffffffffffffff16905090565b606060048054610def906121ad565b80601f0160208091040260200160405190810160405280929190818152602001828054610e1b906121ad565b8015610e685780601f10610e3d57610100808354040283529160200191610e68565b820191906000526020600020905b815481529060010190602001808311610e4b57829003601f168201915b5050505050905090565b6000600a905090565b600080610e86611309565b90506000610e94828661112f565b905083811015610ed9576040517f08c379a0000000000000000000000000000000000000000000000000000000008152600401610ed09061255f565b60405180910390fd5b610ee68286868403611311565b60019250505092915050565b610efa6117dc565b60008111610f3d576040517f08c379a0000000000000000000000000000000000000000000000000000000008152600401610f34906125cb565b60405180910390fd5b80610f4733610b4f565b1015610f88576040517f08c379a0000000000000000000000000000000000000000000000000000000008152600401610f7f90612637565b60405180910390fd5b610f93333083611566565b80600860003373ffffffffffffffffffffffffffffffffffffffff1673ffffffffffffffffffffffffffffffffffffffff1681526020019081526020016000206000016000828254610fe5919061234f565b9250508190555042600860003373ffffffffffffffffffffffffffffffffffffffff1673ffffffffffffffffffffffffffffffffffffffff168152602001908152602001600020600101819055508060076000828254611045919061234f565b925050819055503373ffffffffffffffffffffffffffffffffffffffff167f9e71bc8eea02a63969f509818f2dafb9254532904319f9dbda79b67bd34a5f3d826040516110929190611f99565b60405180910390a250565b60006110a76117dc565b600082116110ea576040517f08c379a00000000000000000000000000000000000000000000000000000000081526004016110e1906125cb565b60405180910390fd5b6110f48383611d53565b905092915050565b6658d15e1762800081565b6317d7840081565b60606040518060600160405280602e8152602001612d04602e9139905090565b6000600160008473ffffffffffffffffffffffffffffffffffffffff1673ffffffffffffffffffffffffffffffffffffffff16815260200190815260200160002060008373ffffffffffffffffffffffffffffffffffffffff1673ffffffffffffffffffffffffffffffffffffffff16815260200190815260200160002054905092915050565b600a81565b60006658d15e17628000600a6111d191906122ad565b905090565b6111de61197c565b80600960008473ffffffffffffffffffffffffffffffffffffffff1673ffffffffffffffffffffffffffffffffffffffff168152602001908152602001600020600082825461122d919061234f565b925050819055508173ffffffffffffffffffffffffffffffffffffffff167f565e9e1c2cc4db7898f06a74a597dc53034410231ec1f984358c9c442c3af3008260405161127a9190611f99565b60405180910390a25050565b61128e61197c565b600073ffffffffffffffffffffffffffffffffffffffff168173ffffffffffffffffffffffffffffffffffffffff16036112fd576040517f08c379a00000000000000000000000000000000000000000000000000000000081526004016112f4906126c9565b60405180910390fd5b61130681611c2a565b50565b600033905090565b600073ffffffffffffffffffffffffffffffffffffffff168373ffffffffffffffffffffffffffffffffffffffff1603611380576040517f08c379a00000000000000000000000000000000000000000000000000000000081526004016113779061275b565b60405180910390fd5b600073ffffffffffffffffffffffffffffffffffffffff168273ffffffffffffffffffffffffffffffffffffffff16036113ef576040517f08c379a00000000000000000000000000000000000000000000000000000000081526004016113e6906127ed565b60405180910390fd5b80600160008573ffffffffffffffffffffffffffffffffffffffff1673ffffffffffffffffffffffffffffffffffffffff16815260200190815260200160002060008473ffffffffffffffffffffffffffffffffffffffff1673ffffffffffffffffffffffffffffffffffffffff168152602001908152602001600020819055508173ffffffffffffffffffffffffffffffffffffffff168373ffffffffffffffffffffffffffffffffffffffff167f8c5be1e5ebec7d5bd14f71427d1e84f3dd0314c0f7b2291e5b200ac8c7c3b925836040516114cd9190611f99565b60405180910390a3505050565b60006114e6848461112f565b90507fffffffffffffffffffffffffffffffffffffffffffffffffffffffffffffffff81146115605781811015611552576040517f08c379a000000000000000000000000000000000000000000000000000000000815260040161154990612859565b60405180910390fd5b61155f8484848403611311565b5b50505050565b600073ffffffffffffffffffffffffffffffffffffffff168373ffffffffffffffffffffffffffffffffffffffff16036115d5576040517f08c379a00000000000000000000000000000000000000000000000000000000081526004016115cc906128eb565b60405180910390fd5b600073ffffffffffffffffffffffffffffffffffffffff168273ffffffffffffffffffffffffffffffffffffffff1603611644576040517f08c379a000000000000000000000000000000000000000000000000000000000815260040161163b9061297d565b60405180910390fd5b61164f838383611d76565b60008060008573ffffffffffffffffffffffffffffffffffffffff1673ffffffffffffffffffffffffffffffffffffffff168152602001908152602001600020549050818110156116d5576040517f08c379a00000000000000000000000000000000000000000000000000000000081526004016116cc90612a0f565b60405180910390fd5b8181036000808673ffffffffffffffffffffffffffffffffffffffff1673ffffffffffffffffffffffffffffffffffffffff16815260200190815260200160002081905550816000808573ffffffffffffffffffffffffffffffffffffffff1673ffffffffffffffffffffffffffffffffffffffff168152602001908152602001600020600082825401925050819055508273ffffffffffffffffffffffffffffffffffffffff168473ffffffffffffffffffffffffffffffffffffffff167fddf252ad1be2c89b69c2b068fc378daa952ba7f163c4a11628f55a4df523b3ef846040516117c39190611f99565b60405180910390a36117d6848484611d7b565b50505050565b6117e4610b14565b15611824576040517f08c379a000000000000000000000000000000000000000000000000000000000815260040161181b90612a7b565b60405180910390fd5b565b600073ffffffffffffffffffffffffffffffffffffffff168273ffffffffffffffffffffffffffffffffffffffff1603611895576040517f08c379a000000000000000000000000000000000000000000000000000000000815260040161188c90612ae7565b60405180910390fd5b6118a160008383611d76565b80600260008282546118b3919061234f565b92505081905550806000808473ffffffffffffffffffffffffffffffffffffffff1673ffffffffffffffffffffffffffffffffffffffff168152602001908152602001600020600082825401925050819055508173ffffffffffffffffffffffffffffffffffffffff16600073ffffffffffffffffffffffffffffffffffffffff167fddf252ad1be2c89b69c2b068fc378daa952ba7f163c4a11628f55a4df523b3ef836040516119649190611f99565b60405180910390a361197860008383611d7b565b5050565b611984611309565b73ffffffffffffffffffffffffffffffffffffffff166119a2610db6565b73ffffffffffffffffffffffffffffffffffffffff16146119f8576040517f08c379a00000000000000000000000000000000000000000000000000000000081526004016119ef90612b53565b60405180910390fd5b565b611a02611d80565b6000600560146101000a81548160ff0219169083151502179055507f5db9ee0a495bf2e6ff9c91a7834c1ba4fdd244a5e8aa4e537bd38aeae4b073aa611a46611309565b604051611a539190612123565b60405180910390a1565b600073ffffffffffffffffffffffffffffffffffffffff168273ffffffffffffffffffffffffffffffffffffffff1603611acc576040517f08c379a0000000000000000000000000000000000000000000000000000000008152600401611ac390612be5565b60405180910390fd5b611ad882600083611d76565b60008060008473ffffffffffffffffffffffffffffffffffffffff1673ffffffffffffffffffffffffffffffffffffffff16815260200190815260200160002054905081811015611b5e576040517f08c379a0000000000000000000000000000000000000000000000000000000008152600401611b5590612c77565b60405180910390fd5b8181036000808573ffffffffffffffffffffffffffffffffffffffff1673ffffffffffffffffffffffffffffffffffffffff1681526020019081526020016000208190555081600260008282540392505081905550600073ffffffffffffffffffffffffffffffffffffffff168373ffffffffffffffffffffffffffffffffffffffff167fddf252ad1be2c89b69c2b068fc378daa952ba7f163c4a11628f55a4df523b3ef84604051611c119190611f99565b60405180910390a3611c2583600084611d7b565b505050565b6000600560009054906101000a900473ffffffffffffffffffffffffffffffffffffffff16905081600560006101000a81548173ffffffffffffffffffffffffffffffffffffffff021916908373ffffffffffffffffffffffffffffffffffffffff1602179055508173ffffffffffffffffffffffffffffffffffffffff168173ffffffffffffffffffffffffffffffffffffffff167f8be0079c531659141344cd1fd0a4f28419497f9722a3daafe3b4186f6b6457e060405160405180910390a35050565b611cf86117dc565b6001600560146101000a81548160ff0219169083151502179055507f62e78cea01bee320cd4e420270b5ea74000d11b0c9f74754ebdbfc544b05a258611d3c611309565b604051611d499190612123565b60405180910390a1565b600080611d5e611309565b9050611d6b818585611566565b600191505092915050565b505050565b505050565b611d88610b14565b611dc7576040517f08c379a0000000000000000000000000000000000000000000000000000000008152600401611dbe90612ce3565b60405180910390fd5b565b600081519050919050565b600082825260208201905092915050565b60005b83811015611e03578082015181840152602081019050611de8565b60008484015250505050565b6000601f19601f8301169050919050565b6000611e2b82611dc9565b611e358185611dd4565b9350611e45818560208601611de5565b611e4e81611e0f565b840191505092915050565b60006020820190508181036000830152611e738184611e20565b905092915050565b600080fd5b600073ffffffffffffffffffffffffffffffffffffffff82169050919050565b6000611eab82611e80565b9050919050565b611ebb81611ea0565b8114611ec657600080fd5b50565b600081359050611ed881611eb2565b92915050565b6000819050919050565b611ef181611ede565b8114611efc57600080fd5b50565b600081359050611f0e81611ee8565b92915050565b60008060408385031215611f2b57611f2a611e7b565b5b6000611f3985828601611ec9565b9250506020611f4a85828601611eff565b9150509250929050565b60008115159050919050565b611f6981611f54565b82525050565b6000602082019050611f846000830184611f60565b92915050565b611f9381611ede565b82525050565b6000602082019050611fae6000830184611f8a565b92915050565b600080600060608486031215611fcd57611fcc611e7b565b5b6000611fdb86828701611ec9565b9350506020611fec86828701611ec9565b9250506040611ffd86828701611eff565b9150509250925092565b60006020828403121561201d5761201c611e7b565b5b600061202b84828501611eff565b91505092915050565b600060ff82169050919050565b61204a81612034565b82525050565b60006020820190506120656000830184612041565b92915050565b60006020828403121561208157612080611e7b565b5b600061208f84828501611ec9565b91505092915050565b60006040820190506120ad6000830185611f8a565b6120ba6020830184611f8a565b9392505050565b6000806000606084860312156120da576120d9611e7b565b5b60006120e886828701611ec9565b93505060206120f986828701611eff565b925050604061210a86828701611eff565b9150509250925092565b61211d81611ea0565b82525050565b60006020820190506121386000830184612114565b92915050565b6000806040838503121561215557612154611e7b565b5b600061216385828601611ec9565b925050602061217485828601611ec9565b9150509250929050565b7f4e487b7100000000000000000000000000000000000000000000000000000000600052602260045260246000fd5b600060028204905060018216806121c557607f821691505b6020821081036121d8576121d761217e565b5b50919050565b7f496e73756666696369656e74207374616b65642062616c616e63650000000000600082015250565b6000612214601b83611dd4565b915061221f826121de565b602082019050919050565b6000602082019050818103600083015261224381612207565b9050919050565b7f4e487b7100000000000000000000000000000000000000000000000000000000600052601160045260246000fd5b600061228482611ede565b915061228f83611ede565b92508282039050818111156122a7576122a661224a565b5b92915050565b60006122b882611ede565b91506122c383611ede565b92508282026122d181611ede565b915082820484148315176122e8576122e761224a565b5b5092915050565b7f4e487b7100000000000000000000000000000000000000000000000000000000600052601260045260246000fd5b600061232982611ede565b915061233483611ede565b925082612344576123436122ef565b5b828204905092915050565b600061235a82611ede565b915061236583611ede565b925082820190508082111561237d5761237c61224a565b5b92915050565b7f4578636565647320746f74616c2045434f20636170206261736564206f6e207460008201527f726565206c6f6769630000000000000000000000000000000000000000000000602082015250565b60006123df602983611dd4565b91506123ea82612383565b604082019050919050565b6000602082019050818103600083015261240e816123d2565b9050919050565b7f496e73756666696369656e7420636172626f6e20637265646974730000000000600082015250565b600061244b601b83611dd4565b915061245682612415565b602082019050919050565b6000602082019050818103600083015261247a8161243e565b9050919050565b7f4578636565647320746f74616c2045434f206361700000000000000000000000600082015250565b60006124b7601583611dd4565b91506124c282612481565b602082019050919050565b600060208201905081810360008301526124e6816124aa565b9050919050565b7f45524332303a2064656372656173656420616c6c6f77616e63652062656c6f7760008201527f207a65726f000000000000000000000000000000000000000000000000000000602082015250565b6000612549602583611dd4565b9150612554826124ed565b604082019050919050565b600060208201905081810360008301526125788161253c565b9050919050565b7f416d6f756e74206d7573742062652067726561746572207468616e2030000000600082015250565b60006125b5601d83611dd4565b91506125c08261257f565b602082019050919050565b600060208201905081810360008301526125e4816125a8565b9050919050565b7f496e73756666696369656e742062616c616e6365000000000000000000000000600082015250565b6000612621601483611dd4565b915061262c826125eb565b602082019050919050565b6000602082019050818103600083015261265081612614565b9050919050565b7f4f776e61626c653a206e6577206f776e657220697320746865207a65726f206160008201527f6464726573730000000000000000000000000000000000000000000000000000602082015250565b60006126b3602683611dd4565b91506126be82612657565b604082019050919050565b600060208201905081810360008301526126e2816126a6565b9050919050565b7f45524332303a20617070726f76652066726f6d20746865207a65726f2061646460008201527f7265737300000000000000000000000000000000000000000000000000000000602082015250565b6000612745602483611dd4565b9150612750826126e9565b604082019050919050565b6000602082019050818103600083015261277481612738565b9050919050565b7f45524332303a20617070726f766520746f20746865207a65726f20616464726560008201527f7373000000000000000000000000000000000000000000000000000000000000602082015250565b60006127d7602283611dd4565b91506127e28261277b565b604082019050919050565b60006020820190508181036000830152612806816127ca565b9050919050565b7f45524332303a20696e73756666696369656e7420616c6c6f77616e6365000000600082015250565b6000612843601d83611dd4565b915061284e8261280d565b602082019050919050565b6000602082019050818103600083015261287281612836565b9050919050565b7f45524332303a207472616e736665722066726f6d20746865207a65726f20616460008201527f6472657373000000000000000000000000000000000000000000000000000000602082015250565b60006128d5602583611dd4565b91506128e082612879565b604082019050919050565b60006020820190508181036000830152612904816128c8565b9050919050565b7f45524332303a207472616e7366657220746f20746865207a65726f206164647260008201527f6573730000000000000000000000000000000000000000000000000000000000602082015250565b6000612967602383611dd4565b91506129728261290b565b604082019050919050565b600060208201905081810360008301526129968161295a565b9050919050565b7f45524332303a207472616e7366657220616d6f756e742065786365656473206260008201527f616c616e63650000000000000000000000000000000000000000000000000000602082015250565b60006129f9602683611dd4565b9150612a048261299d565b604082019050919050565b60006020820190508181036000830152612a28816129ec565b9050919050565b7f5061757361626c653a2070617573656400000000000000000000000000000000600082015250565b6000612a65601083611dd4565b9150612a7082612a2f565b602082019050919050565b60006020820190508181036000830152612a9481612a58565b9050919050565b7f45524332303a206d696e7420746f20746865207a65726f206164647265737300600082015250565b6000612ad1601f83611dd4565b9150612adc82612a9b565b602082019050919050565b60006020820190508181036000830152612b0081612ac4565b9050919050565b7f4f776e61626c653a2063616c6c6572206973206e6f7420746865206f776e6572600082015250565b6000612b3d602083611dd4565b9150612b4882612b07565b602082019050919050565b60006020820190508181036000830152612b6c81612b30565b9050919050565b7f45524332303a206275726e2066726f6d20746865207a65726f2061646472657360008201527f7300000000000000000000000000000000000000000000000000000000000000602082015250565b6000612bcf602183611dd4565b9150612bda82612b73565b604082019050919050565b60006020820190508181036000830152612bfe81612bc2565b9050919050565b7f45524332303a206275726e20616d6f756e7420657863656564732062616c616e60008201527f6365000000000000000000000000000000000000000000000000000000000000602082015250565b6000612c61602283611dd4565b9150612c6c82612c05565b604082019050919050565b60006020820190508181036000830152612c9081612c54565b9050919050565b7f5061757361626c653a206e6f7420706175736564000000000000000000000000600082015250565b6000612ccd601483611dd4565b9150612cd882612c97565b602082019050919050565b60006020820190508181036000830152612cfc81612cc0565b905091905056fe312045434f203d20313020747265657320706c616e74656420287e302e323520746f6e7320434f322f7965617229a2646970667358221220ad7832b46812f357649afdd5835664842b4bca61a80ddb9a77419abea383bd2d64736f6c63430008140033",
  "linkReferences": {},
  "deployedLinkReferences": {}
}